{
  "contractName": "Election",
  "abi": [
    {
      "inputs": [],
      "payable": false,
      "stateMutability": "nonpayable",
      "type": "constructor"
    },
    {
      "constant": false,
      "inputs": [
        {
          "internalType": "string",
          "name": "candidate",
          "type": "string"
        }
      ],
      "name": "election",
      "outputs": [],
      "payable": false,
      "stateMutability": "nonpayable",
      "type": "function"
    }
  ],
  "bytecode": "0x608060405234801561001057600080fd5b5061015b806100206000396000f3fe608060405234801561001057600080fd5b506004361061002b5760003560e01c8063222c573b14610030575b600080fd5b6100e96004803603602081101561004657600080fd5b810190808035906020019064010000000081111561006357600080fd5b82018360208201111561007557600080fd5b8035906020019184600183028401116401000000008311171561009757600080fd5b91908080601f016020809104026020016040519081016040528093929190818152602001838380828437600081840152601f19601f8201169050808301925050505050505091929192905050506100eb565b005b6040518060400160405280600b81526020017f63616e646964617465203100000000000000000000000000000000000000000081525090505056fea265627a7a723158200be97f23a4b7b4b9d36fef186a28b0c6ce11ad6c3c73761cbaaf0d15507f21c364736f6c63430005100032",
  "source": "pragma solidity ^0.5.16;\n\n/**\n * The Election contract does this and that...\n */\ncontract Election {\n\n\n\n\n  constructor() public {\n\n\n  \t }\n\n\n  \tfunction election(string memory candidate) public{\n\n  \t\tcandidate = \"candidate 1\";\n\n  \t\n  \t}\n\n\n\n\n \t  \n    \n  }\n\n",
  "sourcePath": "/home/giwansharyan/Blockchain/Election/election/contracts/Election.sol",
  "compiler": {
    "name": "solc",
    "version": "0.5.16+commit.9c3226ce.Emscripten.clang"
  },
  "schemaVersion": "3.3.3",
  "updatedAt": "2020-12-28T13:27:08.163Z",
  "networkType": "ethereum",
  "devdoc": {
    "methods": {}
  },
  "userdoc": {
    "methods": {},
    "notice": "The Election contract does this and that..."
  }
}